{
  "_format": "hh-sol-artifact-1",
  "contractName": "SignX",
  "sourceName": "contracts/signx.sol",
  "abi": [
    {
      "inputs": [],
      "stateMutability": "nonpayable",
      "type": "constructor"
    },
    {
      "anonymous": false,
      "inputs": [
        {
          "indexed": true,
          "internalType": "address",
          "name": "from",
          "type": "address"
        },
        {
          "indexed": false,
          "internalType": "uint256",
          "name": "timestamp",
          "type": "uint256"
        },
        {
          "indexed": false,
          "internalType": "string",
          "name": "signercode",
          "type": "string"
        },
        {
          "indexed": false,
          "internalType": "string",
          "name": "signcode",
          "type": "string"
        }
      ],
      "name": "NewSigner",
      "type": "event"
    },
    {
      "inputs": [
        {
          "internalType": "string",
          "name": "_signercode",
          "type": "string"
        },
        {
          "internalType": "string",
          "name": "_signcode",
          "type": "string"
        }
      ],
      "name": "sign",
      "outputs": [],
      "stateMutability": "nonpayable",
      "type": "function"
    }
  ],
  "bytecode": "0x608060405234801561001057600080fd5b506100596040518060400160405280601f81526020017f4465706c6f79696e67205369676e5820736d61727420636f6e74726163743a0081525061005e60201b6101911760201c565b6101e1565b6100fa81604051602401610072919061015f565b6040516020818303038152906040527f41304fac000000000000000000000000000000000000000000000000000000007bffffffffffffffffffffffffffffffffffffffffffffffffffffffff19166020820180517bffffffffffffffffffffffffffffffffffffffffffffffffffffffff83818316178352505050506100fd60201b60201c565b50565b60008151905060006a636f6e736f6c652e6c6f679050602083016000808483855afa5050505050565b600061013182610181565b61013b818561018c565b935061014b81856020860161019d565b610154816101d0565b840191505092915050565b600060208201905081810360008301526101798184610126565b905092915050565b600081519050919050565b600082825260208201905092915050565b60005b838110156101bb5780820151818401526020810190506101a0565b838111156101ca576000848401525b50505050565b6000601f19601f8301169050919050565b61063f806101f06000396000f3fe608060405234801561001057600080fd5b506004361061002b5760003560e01c8063e601dd1214610030575b600080fd5b61004a6004803603810190610045919061035e565b61004c565b005b600160405180608001604052803373ffffffffffffffffffffffffffffffffffffffff16815260200184815260200183815260200142815250908060018154018082558091505060019003906000526020600020906004020160009091909190915060008201518160000160006101000a81548173ffffffffffffffffffffffffffffffffffffffff021916908373ffffffffffffffffffffffffffffffffffffffff1602179055506020820151816001019080519060200190610111929190610253565b50604082015181600201908051906020019061012e929190610253565b506060820151816003015550503373ffffffffffffffffffffffffffffffffffffffff167fc922d8722cb42391730704d184eb2a5a7a69a612b2815283f0e473dacb5f5cd942848460405161018593929190610434565b60405180910390a25050565b610227816040516024016101a59190610412565b6040516020818303038152906040527f41304fac000000000000000000000000000000000000000000000000000000007bffffffffffffffffffffffffffffffffffffffffffffffffffffffff19166020820180517bffffffffffffffffffffffffffffffffffffffffffffffffffffffff838183161783525050505061022a565b50565b60008151905060006a636f6e736f6c652e6c6f679050602083016000808483855afa5050505050565b82805461025f90610537565b90600052602060002090601f01602090048101928261028157600085556102c8565b82601f1061029a57805160ff19168380011785556102c8565b828001600101855582156102c8579182015b828111156102c75782518255916020019190600101906102ac565b5b5090506102d591906102d9565b5090565b5b808211156102f25760008160009055506001016102da565b5090565b60006103096103048461049e565b610479565b90508281526020810184848401111561032157600080fd5b61032c8482856104f5565b509392505050565b600082601f83011261034557600080fd5b81356103558482602086016102f6565b91505092915050565b6000806040838503121561037157600080fd5b600083013567ffffffffffffffff81111561038b57600080fd5b61039785828601610334565b925050602083013567ffffffffffffffff8111156103b457600080fd5b6103c085828601610334565b9150509250929050565b60006103d5826104cf565b6103df81856104da565b93506103ef818560208601610504565b6103f8816105f8565b840191505092915050565b61040c816104eb565b82525050565b6000602082019050818103600083015261042c81846103ca565b905092915050565b60006060820190506104496000830186610403565b818103602083015261045b81856103ca565b9050818103604083015261046f81846103ca565b9050949350505050565b6000610483610494565b905061048f8282610569565b919050565b6000604051905090565b600067ffffffffffffffff8211156104b9576104b86105c9565b5b6104c2826105f8565b9050602081019050919050565b600081519050919050565b600082825260208201905092915050565b6000819050919050565b82818337600083830152505050565b60005b83811015610522578082015181840152602081019050610507565b83811115610531576000848401525b50505050565b6000600282049050600182168061054f57607f821691505b602082108114156105635761056261059a565b5b50919050565b610572826105f8565b810181811067ffffffffffffffff82111715610591576105906105c9565b5b80604052505050565b7f4e487b7100000000000000000000000000000000000000000000000000000000600052602260045260246000fd5b7f4e487b7100000000000000000000000000000000000000000000000000000000600052604160045260246000fd5b6000601f19601f830116905091905056fea2646970667358221220a6e6e46106c6e8d01559bee5b6afb533e308428ff3182cfe60d1a728d8a7674c64736f6c63430008040033",
  "linkReferences": {},
  "deployedLinkReferences": {}
}